:020000040800F2
:1000000000000220251000081D0D00081F0D00082B
:10001000210D0008230D0008250D00080000000038
:10002000000000000000000000000000613800082F
:10003000270D00080000000001390008290D000804
:10004000751000087510000875100008751000087C
:10005000751000087510000875100008751000086C
:10006000751000087510000875100008751000085C
:10007000751000087510000875100008751000084C
:10008000751000087510000875100008751000083C
:10009000410D000875100008751000087510000863
:1000A000751000087510000875100008751000081C
:1000B00075100008510D0008751000087510000833
:1000C00075100008751000087510000875100008FC
:1000D00075100008610D0008751000087510000803
:1000E00075100008751000087510000875100008DC
:1000F00075100008751000087510000875100008CC
:1001000075100008751000087510000875100008BB
:1001100075100008751000087510000875100008AB
:100120007510000875100008710D000875100008A2
:10013000751000087510000875100008751000088B
:10014000751000087510000875100008751000087B
:100150007510000875100008810D00087510000862
:10016000751000087510000875100008751000085B
:1001700075100008751000087510000800000000D8
:0801800075100008751000085D
:1001900010B5054C237833B9044B13B10448AFF3C1
:1001A00000800123237010BDC8080020000000005B
:1001B0002456000808B5034B1BB103490348AFF3AD
:1001C000008008BD00000000CC0800202456000874
:1001D00053B94AB9002908BF00281CBF4FF0FF31AE
:1001E0004FF0FF3000F074B9ADF1080C6DE904CEAA
:1001F00000F006F8DDF804E0DDE9022304B0704702
:100200002DE9F047089D04468E46002B4DD18A42C9
:10021000944669D9B2FA82F252B101FA02F3C2F1FC
:10022000200120FA01F10CFA02FC41EA030E94408D
:100230004FEA1C48210CBEFBF8F61FFA8CF708FBAE
:1002400016E341EA034306FB07F199420AD91CEB86
:10025000030306F1FF3080F01F81994240F21C81B8
:10026000023E63445B1AA4B2B3FBF8F008FB103300
:1002700044EA034400FB07F7A7420AD91CEB040435
:1002800000F1FF3380F00A81A74240F20781644405
:10029000023840EA0640E41B00261DB1D44000238A
:1002A000C5E900433146BDE8F0878B4209D9002DEE
:1002B00000F0EF800026C5E9000130463146BDE878
:1002C000F087B3FA83F6002E4AD18B4202D38242E2
:1002D00000F2F980841A61EB030301209E46002D91
:1002E000E0D0C5E9004EDDE702B9FFDEB2FA82F2E6
:1002F000002A40F09280A1EB0C014FEA1C471FFA44
:100300008CFE0126200CB1FBF7F307FB131140EA2A
:1003100001410EFB03F0884208D91CEB010103F1F7
:10032000FF3802D2884200F2CB804346091AA4B2B9
:10033000B1FBF7F007FB101144EA01440EFB00FE8D
:10034000A64508D91CEB040400F1FF3102D2A645F2
:1003500000F2BB800846A4EB0E0440EA03409CE791
:10036000C6F12007B34022FA07FC4CEA030C20FA3E
:1003700007F401FA06F31C43F9404FEA1C4900FA5E
:1003800006F3B1FBF9F8200C1FFA8CFE09FB1811DB
:1003900040EA014108FB0EF0884202FA06F20BD94E
:1003A0001CEB010108F1FF3A80F08880884240F29E
:1003B0008580A8F102086144091AA4B2B1FBF9F0E2
:1003C00009FB101144EA014100FB0EFE8E4508D9DD
:1003D0001CEB010100F1FF346CD28E456AD9023862
:1003E000614440EA0840A0FB0294A1EB0E01A14247
:1003F000C846A64656D353D05DB1B3EB080261EBB5
:100400000E0101FA07F722FA06F3F1401F43C5E98E
:10041000007100263146BDE8F087C2F12003D840C4
:100420000CFA02FC21FA03F3914001434FEA1C4706
:100430001FFA8CFEB3FBF7F007FB10360B0C43EAF8
:10044000064300FB0EF69E4204FA02F408D91CEBA8
:10045000030300F1FF382FD29E422DD902386344A6
:100460009B1B89B2B3FBF7F607FB163341EA034146
:1004700006FB0EF38B4208D91CEB010106F1FF3895
:1004800016D28B4214D9023E6144C91A46EA00468C
:1004900038E72E46284605E70646E3E61846F8E61E
:1004A0004B45A9D2B9EB020864EB0C0E0138A3E767
:1004B0004646EAE7204694E74046D1E7D0467BE748
:1004C000023B614432E7304609E76444023842E7C0
:1004D000704700BF08B50D480D4B0360062343600D
:1004E00000238360C3604FF480220261436103767E
:1004F000012242768276C3760377437700F022FEAC
:1005000000B908BD00F02EFAFBE700BF1809002073
:100510000064004010B588B0002303930493059352
:10052000069307930268194B9A4201D008B010BD98
:100530000024019403F5EA331A6C42F000721A6445
:100540001A6C02F000720192019A02941A6B42F046
:1005500001021A631B6B03F001030293029B4FF429
:10056000C0530393022304930323069309230793A1
:1005700003A9074801F08EFC22460521142001F052
:10058000C9F9142001F0FEF9D0E700BF0064004073
:10059000000002401E4A1179537943EA01231D4AA3
:1005A000138047F23052934201D9DB439BB2194A80
:1005B0001380174A9178D37843EA0123164A1380AF
:1005C00047F23052934201D9DB439BB2124A138067
:1005D0000F4A1178537843EA0123104A1380104AD6
:1005E0001288D21AB2F57A6F03DD0E480188013104
:1005F000018012F57A6F03DA0A490A88013A0A8003
:10060000074A1380074B1A88074B1A80704700BFB0
:10061000A80B0020C80B0020CE0B0020C60B00202A
:10062000DA0B0020CA0B0020CC0B002000B583B0F1
:100630008C46C2F30B0208490A6000238B60CB6032
:1006400008230B6101AB624600F0ECFE00B1012013
:1006500003B05DF804FB00BF0009002000B583B0C3
:10066000284B01221A700368274A934207D0274A71
:10067000934224D0FFF78EFF03B05DF804FB6B4676
:10068000234A002100F04CFF002307E003F1080299
:100690006A4412F8081C1F4AD1540133072BF5DDB8
:1006A0001C4B01221A721A4A1268110E5972C2F3B7
:1006B00007419972C2F30721D9721A73DAE76B46C0
:1006C000134A002100F02CFF0023072B0ADC03F162
:1006D0000D0203F10801694411F8080C0D49885412
:1006E0000133F2E70B4B02225A75094A1268110EC8
:1006F0009975C2F30741D975C2F3072119765A7665
:10070000B8E700BFD80B002000640040006800403C
:10071000E4080020A80B002010B58AB0044600238E
:10072000059301220692079244F22001009144F2BF
:10073000C0010191049308920993694600F0A8FD55
:1007400050B9204600F040FE48B90221204600F092
:100750008CFF38B90AB010BD00F004F9F1E700F0E1
:1007600001F9F2E700F0FEF8F4E7000010B582B0FE
:10077000002401940D4B1A6B42F480021A631B6B28
:1007800003F480030193019B224605213A2001F0E6
:10079000C1F83A2001F0F6F822460521462001F082
:1007A000B9F8462001F0EEF802B010BD0038024062
:1007B00010B500240DE09FED0D0A00F075F907EE6D
:1007C000904AB8EEE70A0A4800F0A0F8012002F0CB
:1007D000A3FF084801F08BFC0134B4F5AF6FEADBEE
:1007E00040F24C4000F04EF9F0E700BF00004843F3
:1007F000FC0C00209C0B002008B5012002F08CFFAF
:10080000FBE70000034B0360034B0B608023136086
:10081000704700BF480B00204809002010B58EB07B
:10082000124C0DF11C0CA646BEE80F00ACE80F0000
:100830009EE807008CE80700002107A802F037FFB8
:100840000B4B1860EE4604F11C0CBCE80F00AEE840
:100850000F009CE807008EE807000021684602F0C0
:1008600026FF044B18600EB010BD00BF3C560008B8
:10087000440900204009002030B58BB000240594C5
:10088000069407940894099401941E4B1A6B42F045
:1008900004021A631A6B02F004020192019A029494
:1008A0001A6B42F080021A631A6B02F08002029205
:1008B000029A03941A6B42F020021A631A6B02F038
:1008C00020020392039A04941A6B42F001021A6305
:1008D0001B6B03F001030493049B0B4D22464FF462
:1008E0008041284601F0C8FB4FF480430593012363
:1008F000069302230793089405A9284601F0CAFA33
:100900000BB030BD003802400014024010B582B078
:1009100004468DED010A4FF47A7304220DEB0201B7
:1009200002F013FB4FF47A7304220349204602F0CD
:100930000CFB02B010BD00BF8856000808B5074880
:10094000074B03600323436040F6B833836001F034
:10095000A2FB00B908BD00F005F8FBE79C0B0020E6
:100960000030004072B6FEE700B595B0302200219D
:1009700008A803F0C5FD0023039304930593069391
:1009800007930193204A116C41F080511164126C5D
:1009900002F080520192019A02931C4A116841F4BC
:1009A00080411160126802F480420292029A0A2287
:1009B000089201220B9210210C910D9202220E92AC
:1009C0000F9308231093A8231193129204231393D7
:1009D00008A801F093FB98B90F2303930223049313
:1009E000002305934FF4A05306934FF480530793CD
:1009F000052103A801F0D0FD20B915B05DF804FB76
:100A0000FFF7B0FFFFF7AEFF003802400070004074
:100A100010B500F057FBFFF7A7FFFFF72DFFFFF71B
:100A2000A5FEFFF757FD00F065FA00F0E9F9FFF7C2
:100A300085FF104800F006F900F042F9B8B900242B
:100A400008E04FF480410C4801F01CFB642000F0EA
:100A500065FB0134092CF4DD0848FFF75DFE08480A
:100A600001F0A0FEFFF7DAFE02F01CFEFEE7FFF742
:100A700079FF00BFFC0C0020001402401809002080
:100A8000F40B002008B5030A05490B7048704FF4B9
:100A900000720448FFF7CAFD00B1012008BD00BF85
:100AA000E40B00201809002008B52DED028BB0EEF4
:100AB000408A1C4B1B88FBB91B4B1B8800EE903AED
:100AC000F8EE600AB0EE480A184800F03DF8BCEEB7
:100AD000C00A10EE103A9BB2154A13801A0A154943
:100AE0000A704B704FF400721348FFF79FFD00B17E
:100AF0000120BDEC028B08BD104B1B8800EE903A24
:100B00000F4B1B8800EE103AF8EE600AB8EE400A70
:100B10000C4800F019F8BCEEC00A054B10EE102A84
:100B20001A80C9E7DC0B0020CE0B00203800002023
:100B3000E00B0020E40B002018090020C60B002069
:100B4000DE0B002000000020D0ED0B7AC0ED0A7A09
:100B500070EE600AC0ED0B0A90ED007A20EE877A05
:100B600080ED0C7A70EEE77A90ED020A67EE807AFB
:100B7000C0ED0D7A90ED056AD0ED066AB4EEE66A36
:100B8000F1EE10FA01DDC0ED056A90ED010A20EEEC
:100B9000800AD0ED050A30EE200A80ED050A77EED6
:100BA000277A30EE270A80ED030AF4EEC06AF1EEF0
:100BB00010FA01D5B0EE660A80ED030AD0ED077A8F
:100BC000F4EEC07AF1EE10FA01DDB0EE670A80EDC6
:100BD000030AF0EEC07A90ED087AF4EEC77AF1EEEF
:100BE00010FA06D5B5EEC00AF1EE10FA23DDB0EE2C
:100BF000470A80ED030AF4EEC06AF1EE10FA01D55F
:100C0000B0EE660A80ED030A90ED047A70EE476A52
:100C1000B0EEE66AD0ED097AB4EEE76AF1EE10FACA
:100C200006DDF5EEC06AF1EE10FA07DD37EE270AB1
:100C300080ED030A7047B1EE470ADAE737EE670A3C
:100C4000F6E7000008B5054B1860054B186800234F
:100C500002221946806803F0A5FC08BDEC0B0020B9
:100C60008000002010B50138012808D8144692B23F
:100C7000074B186802F0D6F940B9204610BD03F0C2
:100C800015FC092303604FF0FF30F7E70520F5E777
:100C9000EC0B002008B538B90122084B186802F0A7
:100CA000DFFC40B9012008BD03F000FC092303600C
:100CB0004FF0FF30F7E70520F5E700BFEC0B002011
:100CC00008B5012000F02AFA024801F010FA0020CD
:100CD00008BD00BF9C0B002000B583B0002200922D
:100CE0000D4B596C41F480415964596C01F48041B9
:100CF000009100990192196C41F0805119641B6CAC
:100D000003F080530193019B0F216FF0010000F06D
:100D100001FE03B05DF804FB00380240FEE7FEE789
:100D2000FEE7FEE7FEE7704708B500F0E5F903F0DF
:100D3000ADFB012800D108BD02F014FEFBE7000066
:100D400008B5024800F0AFFC08BD00BF180900203C
:100D500008B5024801F06EFD08BD00BFF40B00208D
:100D600008B5024802F090FA08BD00BFFC0C002054
:100D700008B5024800F0A0FF08BD00BF3C0C0020F1
:100D800008B5024800F098FF08BD00BF9C0C002089
:100D90004FF0FF3070474FF400534B600020704716
:100DA0000020704710B503460C4A0D490D480068F5
:100DB00040B10C4800680344521A934206D8094ACD
:100DC000136010BD0748084C0460F2E703F06EFBA7
:100DD0000C2303604FF0FF30F3E700BF0000022058
:100DE00000040000F00B0020E04A0020034AD2F883
:100DF000883043F47003C2F88830704700ED00E09B
:100E000000B587B0002302930393049305930093E6
:100E100001931548154A02605422426083604FF4E2
:100E20007A72C26003618023836101F025FE90B96C
:100E30004FF48053029302A90B4801F056FE68B9A3
:100E40000023009301936946074801F0CDFE40B9A5
:100E500007B05DF804FBFFF785FDE9E7FFF782FDCA
:100E6000EEE7FFF77FFDF3E7F40B002000040040FE
:100E700002680E4B9A4200D0704700B583B0002242
:100E8000019203F50D33196C41F0020119641B6CDA
:100E900003F002030193019B05211D2000F03AFDA0
:100EA0001D2000F06FFD03B05DF804FB000400405E
:100EB00008B502680C4B9A4200D008BD0B4B18686D
:100EC0005968013041F10001186059604FF4FA721D
:100ED0000023FFF77DF91343EFD14FF4804104481D
:100EE00001F0D0F8E9E700BF00040040D00B00207B
:100EF0000014024008B50A480A4B03604FF4E1337E
:100F0000436000238360C36003610C2242618361FC
:100F1000C36101F0EBFF00B908BDFFF723FDFBE75C
:100F2000FC0C00200010014030B589B00023039371
:100F30000493059306930793026803F1804303F536
:100F400088339A4201D009B030BD0446002501958E
:100F500003F594335A6C42F010025A645A6C02F052
:100F600010020192019A02951A6B42F001021A6373
:100F70001B6B03F001030293029B4FF4C0630393C6
:100F800002230493032306930723079303A920480E
:100F900000F080FF1F48204B03604FF00063436068
:100FA0008560C5604FF48063036145618561C561FB
:100FB0000562456200F088FD18BB164BA3639C6375
:100FC0001648174B03604FF0006343604023836073
:100FD0000023C3604FF48062026143618361C36197
:100FE0000362436200F070FD70B90C4B63639C6355
:100FF00000220521252000F08DFC252000F0C2FCF8
:10100000A1E7FFF7AFFCD8E7FFF7ACFCEDE700BFC7
:10101000000002403C0C0020406402409C0C002078
:10102000B8640240DFF834D00D480E490E4A002360
:1010300002E0D458C4500433C4188C42F9D30B4A8C
:101040000B4C002301E013600432A242FBD3FFF7F4
:10105000CDFE03F031FAFFF7DBFC70470000022001
:1010600000000020C4080020CC560008C80800205A
:10107000E04A0020FEE7000010B504460E4B187849
:101080004FF47A73B3FBF0F30C4A1068B0FBF3F043
:1010900000F086FC68B90F2C01D901200AE000227B
:1010A00021464FF0FF3000F035FC054B1C6000205E
:1010B00000E0012010BD00BF74000020700000207F
:1010C0007800002008B50B4B1A6842F400721A60D1
:1010D0001A6842F480621A601A6842F480721A60D8
:1010E000032000F005FC0F20FFF7C6FFFFF7F4FD1B
:1010F000002008BD003C0240034A1168034B1B78E6
:101100000B441360704700BF400D002074000020A6
:10111000014B1868704700BF400D002038B50446E9
:10112000FFF7F6FF0546B4F1FF3F02D0044B1B78F2
:101130001C44FFF7EDFF401BA042FAD338BD00BFAF
:1011400074000020002800F0A18038B5044690F813
:101150002030D3B12268136843F001031360FFF716
:10116000D7FF054623685A6812F0010F10D1FFF728
:10117000CFFF401B0A28F5D9636A43F4003363624A
:10118000052384F82030012038BDFFF7C3F9E1E7DB
:101190001A6822F002021A60FFF7BAFF05462368B8
:1011A0005A6812F0020F0DD0FFF7B2FF401B0A2859
:1011B000F5D9636A43F400336362052384F8203071
:1011C0000120E1E7227E012A3DD01A6822F0800248
:1011D0001A60637E012B3BD02268136823F0400322
:1011E0001360A37E012B39D02268136823F02003FB
:1011F0001360E37E012B37D02268136843F010039D
:101200001360237F012B35D02268136823F0080375
:101210001360637F012B33D02268136823F004032B
:101220001360A368E268134322691343626913439E
:101230006268013A21681343CB6100206062012398
:1012400084F82030A0E71A6842F080021A60C0E7F4
:101250002268136843F040031360C2E722681368F2
:1012600043F020031360C4E72268136823F01003DF
:101270001360C6E72268136843F008031360C8E7E9
:101280002268136843F004031360CAE70120704723
:1012900090F82030013BDBB2012B05D9436A43F4BF
:1012A000802343620120704730B5464BD3F80022BB
:1012B00042F00102C3F80022D3F8002222F47C524B
:1012C000C3F80022D3F80022486A42EA0022C3F899
:1012D00000224A6902F01F02012000FA02F2D3F84C
:1012E0001C026FEA020C20EA0200C3F81C02CB6960
:1012F000C3B9344BD3F80C020CEA0000C3F80C025B
:101300008C884869CD6844EA0544483043F8304049
:101310008C68088840EA04404C6904F1480E03EBED
:10132000CE035860CB69012B1ED08B69002B33D1C3
:101330002448D0F804320CEA0303C0F804320B69E5
:101340008BBB2048D0F814320CEA0303C0F81432E7
:101350000B6A012B2ED01B4AD2F8003223F0010376
:10136000C2F80032002030BD164BD3F80C021043F7
:10137000C3F80C028C8848690D6844EA054448307B
:1013800043F8304088894C698D6840EA054048340C
:1013900003EBC4035860C8E70A48D0F8043213438B
:1013A000C0F80432CBE70748D0F814321343C0F832
:1013B0001432CDE70349D1F81C321A43C1F81C227C
:1013C000C9E700BF0064004070B5044690F82050A3
:1013D000EDB2012D06D0436A43F400234362012598
:1013E000284670BD022380F820300268136823F07D
:1013F00001031360FFF78CFE064623685B6813F059
:10140000010F0CD0FFF784FE831B0A2BF5D9636A0A
:1014100043F400336362052384F82030E0E70025BD
:101420006562DDE730B590F820C00468A4680CF16F
:10143000FF3C5FFA8CFCBCF1010F6BD814F0E05F4D
:1014400062D0C4F3016CBCF1020F05D9436A43F4C6
:1014500000034362012062E0012404FA0CF41C60E2
:101460008B68002B3DD10D68CB68046843EA455575
:101470000CF118031B01E55003680C690CF1180E00
:1014800003EB0E135C600B7D012B35D0D179937982
:101490001B0443EA0163517943EA0123147901688B
:1014A000234301EB0C11C1F88C31D17893781B04E4
:1014B00043EA0163517843EA0123117802680B4340
:1014C00002EB0C12C2F8883102680CF1180C4FEADA
:1014D0000C1C52F80C3043F0010342F80C30002091
:1014E0001DE04C6843EAC403CC6823430CF11804A4
:1014F000240105682B51BFE7036803EB0E135968FD
:1015000041F480715960C1E7436A43F400134362B8
:10151000012004E0436A43F480234362012030BD8C
:1015200090F820C00CF1FF3C5FFA8CFCBCF1010F7D
:1015300000F2958030B451B90468E46814F0030FE8
:1015400010D1436A43F400134362012077E004683A
:10155000246914F0030F05D1436A43F40013436276
:1015600001206CE001F11B04240105682C5904F0F2
:1015700004049460002C64D101F11B04240105686B
:101580002C59640D1460046801F11B0C4FEA0C1C0B
:1015900054F80C4004F00204D460046864446468A5
:1015A00004F00F041461046864446468C4F30724FD
:1015B0009461046864446468240C5461026802EB1A
:1015C0000112D2F8B8211A70026802EB0112D2F8A7
:1015D000B821C2F307225A70026802EB0112D2F856
:1015E000B821C2F307429A70026802EB0112D2F8E6
:1015F000B821120EDA70026802EB0112D2F8BC2197
:101600001A71026802EB0112D2F8BC21C2F3072260
:101610005A71026802EB0112D2F8BC21C2F30742F0
:101620009A71026802EB0112D2F8BC21120EDA7133
:1016300079B90268D36843F02003D360002030BC3E
:10164000704701F11B04240105682C59E40854601B
:1016500099E70268136943F020031361EEE7436AD8
:1016600043F4802343620120704790F82030013B0F
:10167000DBB2012B05D9436A43F480234362012086
:1016800070470268536919435161002070477047E1
:101690007047704770477047704770477047704792
:1016A0007047704770472DE9F84F054603685C693D
:1016B000D3F804809F68D3F80CB0D3F810A0D3F807
:1016C000189014F001063BD017F0010616D0012245
:1016D0009A6017F0020F08D117F0040F0CD117F021
:1016E000080606D04FF4805608E0FFF7D0FF00262A
:1016F00004E0FFF7CFFF01E04FF4006617F4807FAE
:101700000DD02B684FF480729A6017F4007F40F080
:10171000868017F4806F00F0868046F4005617F438
:10172000803F0DD02B684FF480329A6017F4003F51
:1017300040F0838017F4802F00F0838046F4004649
:1017400014F0080F07D01BF0100F04D046F40076F9
:101750002B681022DA6014F0040F02D01BF0080F7F
:1017600079D114F0020F04D02B68DB6813F0030F5B
:1017700078D114F0400F07D01AF0100F04D046F4BF
:1017800080662B6810221A6114F0200F02D01AF024
:10179000080F6BD114F0100F04D02B681B6913F0E5
:1017A000030F6AD114F4003F02D018F0100F68D173
:1017B00014F4803F02D018F0080F69D114F4004FE0
:1017C0007AD018F0040F74D014F4807F04D019F08C
:1017D000010F01D046F0010614F4007F04D019F087
:1017E000020F01D046F0020614F4806F04D019F005
:1017F000040F01D046F0040614F4006F59D019F01C
:10180000700956D0B9F1400F65D058D8B9F1200F02
:101810005ED0B9F1300F42D146F0200644E02846B0
:10182000FFF736FF7BE717F4006F02D046F48046DF
:1018300075E72846FFF72FFF71E72846FFF729FFD6
:101840007EE717F4002F02D046F4803678E728466A
:10185000FFF722FF74E72B680822DA602846FFF7BB
:101860001CFF7EE72846FEF7F9FE82E72B68082278
:101870001A612846FFF713FF8CE72846FFF70EFF93
:1018800090E72B6810225A602846FFF709FF8FE780
:101890002B6808225A602846FFF703FF8EE7B9F14C
:1018A000100F01D146F008062A68936923F07003EF
:1018B00093612B6804225A609EB9BDE8F88FB9F194
:1018C000500F0BD0B9F1600FEED146F48076EBE704
:1018D00046F01006E8E746F04006E5E746F08006E9
:1018E000E2E76B6A1E436E622846FFF7DBFEE4E721
:1018F000074AD36823F4E0631B041B0C000200F4C6
:10190000E060034343F0BF6343F40033D3607047A8
:1019100000ED00E000B5194BDB68C3F30223C3F10F
:10192000070CBCF1040F28BF4FF0040C03F1040EA8
:10193000BEF1060F18D9033B4FF0FF3E0EFA0CFC28
:1019400021EA0C0199400EFA03F322EA030319433A
:1019500000280BDB0901C9B200F1604000F56140CD
:1019600080F800135DF804FB0023E5E700F00F00AA
:101970000901C9B2024B1954F4E700BF00ED00E0C1
:1019800014ED00E0002807DB00F01F0240090123EE
:101990009340024A42F82030704700BF00E100E067
:1019A0000138B0F1807F0BD24FF0E0235861054A37
:1019B000F02182F823100020986107221A617047F5
:1019C0000120704700ED00E030B405682C6824F475
:1019D00080242C60046863608368402B05D0036812
:1019E00099600368DA6030BC704703689A600368E6
:1019F000D960F8E710B40368D9B210390C4AA2FBD9
:101A0000014212090B4CA25CC2655F2909D923F47B
:101A10007F7323F0030304338365806D5DF8044B0B
:101A2000704723F47F7323F003038365F5E700BF5A
:101A3000ABAAAAAAA4560008836A826992B9012BAC
:101A40000AD0022B02D00BB100207047C36A13F0FA
:101A5000807F28D100207047C36AB3F1C07F24D0B3
:101A600000207047B2F5005F09D0022B25D9032B67
:101A700025D1C36A13F0807F23D100207047032B48
:101A800003D8DFE803F01404140A00207047C36A87
:101A900013F0807F0DD100207047C36AB3F1C07F7F
:101AA00009D00020704701207047012070470120B5
:101AB00070470120704701207047012070470020C7
:101AC000704701207047000070B50446FFF720FB07
:101AD000002C5BD00546022384F83530002384F8BF
:101AE00034302268136823F00103136023681A68F6
:101AF00012F0010F0AD0FFF70BFB431B052BF5D9A2
:101B000020236365032084F8350070BD1A682048DF
:101B100010406168A2680A43E1680A4321690A43E8
:101B200061690A43A1690A43E1690A43216A0A43D8
:101B30000243616A04291ED01A602668756925F07F
:101B40000705636A1D43042B07D1A36A1D43E36A9B
:101B50001BB12046FFF770FF90B975612046FFF773
:101B600049FFE26D3F2393408360002060650123BD
:101B700084F83530C9E7E16A206B01430A43DBE7AB
:101B800040236365012084F83500BEE70120BCE7EF
:101B90003F8010F038B50446856D90F83400012878
:101BA0002BD0012084F8340094F83500C0B201280D
:101BB00004D0002384F83430022038BD022084F899
:101BC0003500002060652046FFF7FEFEE26D3F23F2
:101BD0009340AB602268136843F016031360236CD4
:101BE00023B12268136843F0080313602268136866
:101BF00043F0010313600020DFE70220DDE770B54A
:101C00000446866DFFF784FA94F83530DBB2022B78
:101C100006D080236365002384F83430012070BD32
:101C200005462268136823F016031360226853697F
:101C300023F080035361236CE3B12268136823F01F
:101C4000080313602268136823F0010313602368FC
:101C50001B6813F0010F11D0FFF75AFA431B052B35
:101C6000F5D920236365032084F83500002384F828
:101C70003430D4E7A36C002BDFD1E3E7E26D3F23E0
:101C80009340B360012384F83530002084F8340099
:101C9000C5E790F83530DBB2022B03D080234365D3
:101CA00001207047052380F835300268136823F05F
:101CB0000103136000207047F0B583B00446002391
:101CC0000193724B1D68724BA3FB0535AD0A876DFE
:101CD0003E68C26D08239340334210D003681A68EF
:101CE00012F0040F0BD01A6822F004021A60C26DC1
:101CF00008239340BB60436D43F001034365E26DED
:101D000001239340334209D02268526912F0800FB8
:101D100004D0BB60636D43F002036365E26D04238E
:101D20009340334209D02268126812F0020F04D0A7
:101D3000BB60636D43F004036365E26D1023934061
:101D4000334224D02268126812F0080F1FD0BB6003
:101D500023681A6812F4802F0DD01B6813F4002F2B
:101D600004D1236C9BB12046984710E0A36C73B15B
:101D7000204698470BE01A6812F4807F03D11A6856
:101D800022F008021A60236C0BB120469847E26DDE
:101D900020239340334255D02268126812F0100F6E
:101DA00050D0BB6094F83530DBB2052B0ED02368E1
:101DB0001A6812F4802F33D01B6813F4002F2AD135
:101DC000636C002B3ED0204698473BE022681368A6
:101DD00023F0160313602268536923F080035361D4
:101DE000236CA3B12268136823F008031360E26D2B
:101DF0003F239340BB60012384F83530002384F8EF
:101E00003430236D002B3FD0204698473CE0A36C34
:101E1000002BE7D1EBE7E36BA3B12046984711E035
:101E20001A6812F4807F09D11A6822F010021A6031
:101E3000012384F83530002384F83430E36B0BB190
:101E400020469847636DFBB1636D13F0010F17D007
:101E5000052384F835302268136823F001031360EA
:101E6000019B01330193AB4204D823681B6813F034
:101E7000010FF5D1012384F83530002384F8343084
:101E8000E36C0BB12046984703B0F0BD7000002012
:101E9000B5814E1B00230F2B00F2E48070B582B099
:101EA00060E085685E000324B44025EA0405CC6840
:101EB000B4402C438460456825EA02054C68C4F3AD
:101EC00000129A402A4342605AE0DC08083450F875
:101ED000246003F0070295000F22AA4026EA020EB2
:101EE0000A69AA4042EA0E0240F824205CE0072278
:101EF00000E0002202FA0EF22A4302345A4D45F85D
:101F000024205A4A94686FEA0C0224EA0C054E68B1
:101F100016F4801F01D04CEA0405544CA560E46817
:101F200002EA04054E6816F4001F01D04CEA0405CD
:101F30004E4CE560646802EA04054E6816F4003F02
:101F400001D04CEA0405494C6560246822404D6884
:101F500015F4803F01D04CEA0402444C2260013366
:101F60000F2B7DD801229A400C6804EA020C32EA59
:101F70000404F4D14C6804F00304013C012C90D912
:101F80004A6802F00302032A09D0C4685D000322F4
:101F9000AA4024EA02048A68AA402243C2604A682E
:101FA00002F00302022A90D004684FEA430E032293
:101FB00002FA0EF224EA02044A6802F0030202FA6C
:101FC0000EF2224302604A6812F4403FC7D000225A
:101FD0000192274A546C44F480445464526C02F4D5
:101FE00080420192019A9C08A51C1F4A52F8255074
:101FF00003F003024FEA820E0F2202FA0EF225EAE4
:1020000002051C4A90423FF474AF02F58062904290
:102010001AD002F58062904218D002F58062904298
:1020200016D002F58062904214D002F58062904290
:1020300012D002F58062904210D002F58062904288
:102040003FF455AF082255E7012253E7022251E73A
:1020500003224FE704224DE705224BE7062249E71A
:1020600002B070BD704700BF00380140003C014025
:1020700000380240000002400AB181617047090443
:1020800081617047436901EA030221EA030141EAE1
:1020900002418161704740B338B5044603684CF68D
:1020A000CC421A60036845F255521A6003684268D0
:1020B0005A60036882689A60FFF72AF80546236829
:1020C000DA6812F0030F0BD0FFF722F8401B31281B
:1020D000F5D92368DB6813F0030FF0D0032003E089
:1020E0004AF6AA221A60002038BD01207047036812
:1020F0004AF6AA221A60002070470000002800F06B
:10210000E08170B582B00446036813F0010F3BD044
:102110009F4B9B6803F00C03042B2CD09C4B9B68BB
:1021200003F00C03082B21D06368B3F5803F4FD038
:10213000B3F5A02F52D0964B1A6822F480321A6061
:102140001A6822F480221A606368002B50D0FEF7D0
:10215000DFFF05468E4B1B6813F4003F14D1FEF7DA
:10216000D7FF401B6428F5D90320B1E1884B5B6899
:1021700013F4800FD8D0864B1B6813F4003F03D0B4
:102180006368002B00F09F81236813F0020F54D086
:102190007F4B9B6813F00C0F3ED07D4B9B6803F088
:1021A0000C03082B33D0E368002B68D0794B012255
:1021B0001A60FEF7ADFF0546754B1B6813F0020F62
:1021C00054D1FEF7A5FF401B0228F5D903207FE17B
:1021D0006F4A136843F480331360B5E76C4B1A6899
:1021E00042F480221A601A6842F480321A60ABE727
:1021F000FEF78EFF0546664B1B6813F4003FC3D005
:10220000FEF786FF401B6428F5D9032060E1604B90
:102210005B6813F4800FC6D15D4B1B6813F0020F8F
:1022200003D0E368012B40F05081594A136823F032
:10223000F803216943EAC1031360236813F0080F10
:1022400042D063696BB3534B0122C3F8802EFEF773
:102250005FFF05464E4B5B6F13F0020F34D1FEF764
:1022600057FF401B0228F5D9032031E1484A136883
:1022700023F0F803216943EAC1031360DDE7454B0E
:1022800000221A60FEF744FF0546414B1B6813F01D
:10229000020FD2D0FEF73CFF401B0228F5D90320E5
:1022A00016E13C4B0022C3F8802EFEF731FF0546B5
:1022B000374B5B6F13F0020F06D0FEF729FF401B70
:1022C0000228F5D9032003E1236813F0040F77D027
:1022D0002F4B1B6C13F0805F33D1002301932C4BE9
:1022E0001A6C42F080521A641B6C03F08053019305
:1022F000019B0125284B1B6813F4807F23D0A36822
:10230000012B34D0052B38D0214B1A6F22F001025B
:102310001A671A6F22F004021A67A368002B3DD0D7
:10232000FEF7F6FE06461A4B1B6F13F0020F46D15E
:10233000FEF7EEFE801B41F288339842F3D903206A
:10234000C6E00025D6E7144A136843F4807313608F
:10235000FEF7DEFE0646104B1B6813F4807FCED1DD
:10236000FEF7D6FE801B0228F5D90320B0E0084A0C
:10237000136F43F001031367CFE7054B1A6F42F069
:1023800004021A671A6F42F001021A67C5E700BF1C
:10239000003802400000474200700040FEF7B8FEDF
:1023A0000646524B1B6F13F0020F08D0FEF7B0FE2B
:1023B000801B41F288339842F3D9032088E0EDB9BD
:1023C000A369002B00F08380484A926802F00C0257
:1023D000082A51D0022B17D0454B00221A66FEF76F
:1023E00097FE0446414B1B6813F0007F42D0FEF776
:1023F0008FFE001B0228F5D9032069E03B4A136CCD
:1024000023F080531364DBE7394B00221A66FEF792
:102410007FFE0546354B1B6813F0007F06D0FEF7A4
:1024200077FE401B0228F5D9032051E0E369226AB8
:102430001343626A43EA8213A26A5208013A43EAEA
:102440000243E26A43EA0263284A5360284B0122AE
:102450001A66FEF75DFE0446244B1B6813F0007FEE
:1024600006D1FEF755FE001B0228F5D903202FE008
:1024700000202DE000202BE0012B2BD01B4B5B68B4
:1024800003F48001E269914226D103F03F02216A00
:102490008A4223D1616A47F6C0721A40B2EB811FAB
:1024A0001ED103F44031A26A5208013AB1EB024F47
:1024B00018D103F07063E26AB3EB026F14D100200D
:1024C00006E001207047012002E0012000E000202A
:1024D00002B070BD0120FBE70120F9E70120F7E71A
:1024E0000120F5E70120F3E70120F1E70038024081
:1024F0000000474208B5254B9B6803F00C03042BF2
:102500003FD0082B3FD1214B5A6802F03F025B6855
:1025100013F4800F12D01D4B5968C1F388111C4869
:102520000023A1FB0001FDF753FE184B5B68C3F3CA
:10253000014301335B00B0FBF3F025E0134B596816
:10254000C1F3881C4FEA4C11B1EB0C006EEB0E0E80
:102550004FEA8E1343EA90638101091A63EB0E037D
:10256000DB0043EA5173C90011EB0C0C43F100038B
:10257000990200234FEA8C2041EA9C51FDF728FE86
:10258000D3E7034800E0034808BD00BF003802401D
:1025900040787D010024F400002800F09B8070B595
:1025A0000D4604464F4B1B6803F007038B4208D2CD
:1025B000CBB24C4A1370136803F007038B4240F010
:1025C0008B80236813F0020F17D013F0040F04D090
:1025D000454A936843F4E0539360236813F0080F6F
:1025E00004D0414A936843F4604393603E4A936841
:1025F00023F0F003A1680B439360236813F0010FED
:1026000032D06368012B21D09A1E012A25D9364A7F
:10261000126812F0020F61D033498A6822F0030277
:1026200013438B60FEF774FD06462F4B9B6803F047
:102630000C036268B3EB820F16D0FEF769FD801BB6
:1026400041F288339842F0D9032042E0264A1268CA
:1026500012F4003FE0D101203BE0234A126812F05F
:10266000007FD9D1012034E01E4B1B6803F0070323
:10267000AB4207D9EAB21B4B1A701B6803F0070381
:10268000AB422DD1236813F0040F06D0164A93688D
:1026900023F4E053E1680B439360236813F0080FC1
:1026A00007D0114A936823F46043216943EAC103C8
:1026B0009360FFF71FFF0C4B9B68C3F303130B4A98
:1026C000D35CD8400A4B18600A4B1868FEF7D4FC5C
:1026D000002070BD012070470120FAE70120F8E7D3
:1026E0000120F6E7003C0240003802408C5600080A
:1026F0007000002078000020014B1868704700BF70
:102700007000002008B5FFF7F7FF044B9B68C3F388
:102710008223034AD35CD84008BD00BF0038024082
:102720009C56000808B5FFF7E7FF044B9B68C3F30E
:102730004233034AD35CD84008BD00BF0038024092
:102740009C56000810B4036A046A24F00104046271
:10275000846924F0F00C4CEA021223F00A030B43C4
:10276000826103625DF8044B704710B4046A24F080
:10277000100404628469036A24F4704C4CEA023247
:1027800023F0A00343EA0113826103625DF8044B66
:102790007047836823F070030B4343F007038360A3
:1027A0007047000090F83D30DBB2012B37D1022397
:1027B00080F83D300268D36843F00103D3600368BA
:1027C000194A934220D0B3F1804F1DD0A2F57C422C
:1027D000934219D002F58062934215D002F58062CF
:1027E000934211D002F5784293420DD002F5705217
:1027F000934209D0A2F59432934205D01A6842F070
:1028000001021A60002070479A6802F00702062A47
:1028100007D01A6842F001021A60002070470120B8
:1028200070470020704700BF0000014070477047AC
:102830007047704710B5044603681A6912F0020F1A
:1028400011D0DA6812F0020F0DD06FF002021A6197
:102850000123037703689B6913F0030F70D0FFF720
:10286000E6FF0023237723681A6912F0040F12D0C1
:10287000DA6812F0040F0ED06FF004021A6102231E
:10288000237723689B6913F4407F5FD02046FFF7CE
:10289000CEFF0023237723681A6912F0080F12D0A5
:1028A000DA6812F0080F0ED06FF008021A610423E4
:1028B00023772368DB6913F0030F4ED02046FFF720
:1028C000B6FF0023237723681A6912F0100F12D085
:1028D000DA6812F0100F0ED06FF010021A610823A0
:1028E00023772368DB6913F4407F3DD02046FFF750
:1028F0009EFF0023237723681A6912F0010F03D08B
:10290000DA6812F0010F36D123681A6912F0800FCD
:1029100003D0DA6812F0800F34D123681A6912F0FC
:10292000400F03D0DA6812F0400F32D123681A69E1
:1029300012F0200F03D0DA6812F0200F30D110BD52
:10294000FFF774FF2046FFF773FF8AE72046FFF783
:102950006DFF2046FFF76CFF9BE72046FFF766FF01
:102960002046FFF765FFACE72046FFF75FFF2046F4
:10297000FFF75EFFBDE76FF001021A612046FEF728
:1029800097FAC1E76FF080021A61204600F073F9F0
:10299000C3E76FF040021A612046FFF74AFFC5E720
:1029A0006FF020021A61204600F064F9C7E70000CA
:1029B0000368304A904212D0B0F1804F0FD0A2F598
:1029C0007C4290420BD002F58062904207D002F523
:1029D0008062904203D002F57842904203D123F006
:1029E00070034A681343234A90422AD0B0F1804FC3
:1029F00027D0A2F57C42904223D002F5806290421B
:102A00001FD002F5806290421BD002F578429042BE
:102A100017D002F57052904213D002F580629042B6
:102A20000FD002F5806290420BD0A2F5983290420E
:102A300007D002F58062904203D002F58062904296
:102A400003D123F44073CA68134323F080034A6917
:102A5000134303608B68C3620B688362054B984223
:102A600003D003F58063984201D10B69036301230E
:102A7000436170470000014040B310B5044690F830
:102A80003D30F3B1022384F83D30214651F8040B68
:102A9000FFF78EFF012384F8463084F83E3084F837
:102AA0003F3084F8403084F8413084F8423084F874
:102AB000433084F8443084F8453084F83D300020B9
:102AC00010BD80F83C30FEF7D3F9DBE701207047FA
:102AD00010B4846824F47F4C42EA03220A4342EA99
:102AE0000C0282605DF8044B704790F83C30012B7B
:102AF00078D010B50446012380F83C30022380F8DA
:102B00003D300268936823F47F4323F0770393609A
:102B10000B68602B4CD029D8402B54D00CD9502BAB
:102B200022D1CA6849680068FFF70CFE502120686E
:102B3000FFF72FFE002005E0202B0DD009D9302B08
:102B40000AD00120012384F83D30002384F83C3072
:102B500010BD0BB1102B05D119462068FFF719FEE7
:102B60000020EFE70120EDE70120EBE7B3F5805F00
:102B700034D0B3F5005F0CD1CB684A68896800682F
:102B8000FFF7A6FF2268936843F480439360002018
:102B9000D8E7702B24D1CB684A6889680068FFF7B2
:102BA00097FF2268936843F0770393600020C9E79A
:102BB000CA6849680068FFF7D8FD60212068FFF700
:102BC000E8FD0020BEE7CA6849680068FFF7BAFD63
:102BD00040212068FFF7DDFD0020B3E70020B1E7CA
:102BE0000120AFE70220704790F83C30012B3DD028
:102BF00010B4012380F83C30022380F83D30036894
:102C00005A689C6822F0700C0A6842EA0C025A600A
:102C10000368174A93421AD0B3F1804F17D0A2F538
:102C20007C42934213D002F5806293420FD002F5AA
:102C3000806293420BD002F57842934207D002F5AE
:102C40007052934203D0A2F59432934204D124F0FF
:102C500080044A6814439C60012380F83D300023BF
:102C600080F83C3018465DF8044B704702207047EE
:102C70000000014070477047026802F10C0353E8FE
:102C8000003F23F0C0030C3242E800310029F3D1A9
:102C9000202380F83D307047026802F10C0353E8AE
:102CA000003F23F490730C3242E800310029F3D145
:102CB000026802F1140353E8003F23F001031432C9
:102CC00042E800310029F3D1036B012B05D020230A
:102CD00080F83E30002303637047026802F10C0362
:102CE00053E8003F23F010030C3242E80031002982
:102CF000F3D1ECE790F83D30DBB2212B01D002207C
:102D000070478368B3F5805F17D0036A5A1C02626C
:102D10001A7803685A60C38C9BB2013B9BB2C38490
:102D20004BB90268D36823F08003D3600268D3688C
:102D300043F04003D360002070470369002BE4D1C7
:102D4000036A1B880268C3F308035360036A0233F3
:102D50000362E0E738B504460268136923F4405380
:102D6000C1680B43136183680269134342691343CB
:102D7000C2691A430168CB6823F4164323F00C039D
:102D80001343CB600268536923F4407381690B439A
:102D900053610368314A934206D002F58062934240
:102DA00002D0FFF7AFFC01E0FFF7BCFCE369B3F52D
:102DB000004F29D00021031849411B1841F100019F
:102DC000C90041EA5371DB00181863684FEA8302B7
:102DD0004FEA937341F10001FDF7FAF9204DA5FB8D
:102DE00000325109642303FB11031B013233A5FB9D
:102DF00003235B0903F0F00202EB011203F00F035F
:102E0000216813448B6038BD0023021843EB030193
:102E1000121841F10001C90041EA5271D2001018A4
:102E200041F10001626892185B41FDF7D1F90C4D48
:102E3000A5FB00325109642303FB1103DB0032338D
:102E4000A5FB03235B095A0002F4F87202EB01129E
:102E500003F00703216813448B60D4E7001001409E
:102E60001F85EB512DE9F84305460F461646994656
:102E7000DDF820802C68246837EA04030CBF4FF08B
:102E8000010C4FF0000CB4452DD1B8F1FF3FF1D04B
:102E9000B8F1000F05D0FEF73BF9A0EB0900404563
:102EA000E8D92A6802F10C0353E8003F23F4D073F9
:102EB0000C3242E800310029F3D12A6802F11403F0
:102EC00053E8003F23F00103143242E800310029A7
:102ED000F3D1202385F83D3085F83E30002385F876
:102EE0003C30032000E00020BDE8F88358B310B563
:102EF000044690F83D300BB3242384F83D3022681B
:102F0000D36823F40053D3602046FFF723FF2268E1
:102F1000136923F4904313612268536923F02A0351
:102F200053612268D36843F40053D36000202064C7
:102F3000202384F83D3084F83E3010BD80F83C30CA
:102F4000FDF7F2FFD8E7012070472DE9F04182B08C
:102F50001E4690F83D30DBB2202B54D104460D467E
:102F60009046002953D0002A53D090F83C30012BD2
:102F700051D0012380F83C3000230364212380F8E2
:102F80003D30FEF7C5F80746A4F82480A4F8268053
:102F9000A368B3F5805F05D04FF00008002384F8E4
:102FA0003C3012E0236913B14FF00008F6E7A84661
:102FB0000025F3E738F8023B2268C3F308035360A7
:102FC000E28C92B2013A92B2E284E38C9BB273B18A
:102FD00000963B46002280212046FFF743FFE0B9E0
:102FE000002DE7D015F8012B23685A60E8E700961A
:102FF0003B46002240212046FFF734FF78B92023CA
:1030000084F83D3000E0022002B0BDE8F0810120EC
:10301000FAE70120F8E70220F6E70320F4E70320AF
:10302000F2E7000038B590F83D30DBB2202B38D104
:103030000446002937D0002A37D090F83C30012BC5
:1030400035D0012380F83C3001628284C28400259F
:103050000564212380F83D30436B1648D863636BC9
:1030600015481864636B1548D864636B1D65206848
:103070001346021D606BFEF78DFD23686FF0400262
:103080001A6084F83C50226802F1140353E8003FB0
:1030900043F08003143242E800310029F3D10020CC
:1030A00000E0022038BD0120FCE70120FAE7022001
:1030B000F8E700BFC33000082B3100083B3100089F
:1030C000704708B50346806B1B681B6813F4807F4C
:1030D0001AD10023C384026802F1140353E8003FAD
:1030E00023F08003143242E800310029F3D1026852
:1030F00002F10C0353E8003F43F040030C3242E876
:1031000000310029F3D108BDFFF7DAFFFBE708B56E
:103110000168CA6822F04002CA60202280F83D207F
:10312000FFF7CEFF002008BD704708B5806BFFF7A2
:10313000FBFF08BD70477047704710B5846B23686C
:103140005A6994F83D30DBB2212B10D023685A69BC
:1031500002F0400294F83E30DBB2222B11D0236CF7
:1031600043F0100323642046FFF7E6FF10BD02F092
:103170008002002AEAD00023E3842046FFF77CFD8A
:10318000E4E7002AEBD00023E3852046FFF784FD27
:10319000E5E708B5806B0023C385C384FFF7CCFF48
:1031A00008BD704790F83E30DBB2222B67D18368B0
:1031B000B3F5805F4DD0826AB3F5805F04D0002BF9
:1031C00054D10369002B51D103685B681370836A83
:1031D00001338362C38D9BB2013B9BB2C385002B3D
:1031E0004FD100B583B00268D36823F02003D360C9
:1031F0000268D36823F48073D3600268536923F0B4
:1032000001035361202380F83E30036B012B33D13F
:1032100000230363026802F10C0353E8003F23F02C
:1032200010030C3242E800310029F3D103681A6818
:1032300012F0100F06D0002201921A6801925B680A
:103240000193019B818DFFF7ACFF002003B05DF877
:1032500004FB0269002AAED1826A03685B68C3F38B
:1032600008031380836A02338362B3E703685B68F1
:1032700003F07F031370AAE7FFF75CFFE5E7022086
:10328000704700207047000030B583B004460268E4
:103290001368D068516913F00F0505D113F0200FA2
:1032A00002D010F0200F19D12DB111F0010119D168
:1032B00010F4907F16D1216B01297DD013F0800F7F
:1032C00003D010F0800F40F0158113F0400F03D0B1
:1032D00010F0400F40F0128103B030BD2046FFF7E0
:1032E00061FFF9E713F0010F06D010F4807F03D0DF
:1032F000226C42F00102226413F0040F04D019B1D1
:10330000226C42F00202226413F0020F04D019B1C1
:10331000226C42F00402226413F0080F07D010F070
:10332000200F00D119B1226C42F008022264226CF5
:10333000002AD1D013F0200F02D010F0200F29D195
:1033400023685B6903F04003226C12F0080F00D180
:1033500063B32046FFF7A0FC23685B6913F0400FBE
:1033600020D0226802F1140353E8003F23F0400309
:10337000143242E800310029F3D1A36B73B1614AE2
:103380001A65A06BFEF785FC0028A5D0A06B036D25
:103390009847A1E72046FFF705FFD1E72046FFF752
:1033A000CBFE99E72046FFF7C7FE95E72046FFF7DB
:1033B000C3FE002323648FE713F0100F3FF47EAFAA
:1033C00010F0100F3FF47AAF0023019313680193BC
:1033D00053680193019B536913F0400F50D0A26BC7
:1033E00013685B689BB2002B3FF476AFA18D9942C6
:1033F0007FF672AFE385D369B3F5807F37D022685B
:1034000002F10C0353E8003F23F480730C3242E8CE
:1034100000310029F3D1226802F1140353E8003F80
:1034200023F00103143242E800310029F3D122686D
:1034300002F1140353E8003F23F04003143242E842
:1034400000310029F3D1202384F83E300023236388
:10345000226802F10C0353E8003F23F010030C3202
:1034600042E800310029F3D1A06BFEF7C8FBA18D23
:10347000E38D9BB2C91A89B22046FFF792FE2BE773
:10348000A18DE38D9BB2C91A89B2E38D9BB2002B4B
:103490003FF422AF00293FF41FAF226802F10C0372
:1034A00053E8003F23F490730C3242E800300028C8
:1034B000F3D1226802F1140353E8003F23F0010323
:1034C000143242E800300028F3D1202384F83E3043
:1034D00000232363226802F10C0353E8003F23F02A
:1034E00010030C3242E800300028F3D12046FFF7E9
:1034F00058FEF1E62046FFF7FDFBEDE62046FFF71C
:1035000006FEE9E69331000808B5806B036B012BDA
:1035100002D0FFF710FE08BD818D4908FFF741FE7C
:10352000F9E708B50346806B1B681B6813F4807FBE
:103530002BD10023C385026802F10C0353E8003F3E
:1035400023F480730C3242E800310029F3D1026881
:1035500002F1140353E8003F23F00103143242E860
:1035600000310029F3D1026802F1140353E8003F4F
:1035700023F04003143242E800310029F3D1202324
:1035800080F83E30036B012B05D0036B012B0FD06D
:10359000FFF7D0FD08BD026802F10C0353E8003FBD
:1035A00023F010030C3242E800310029F3D1ECE79C
:1035B000818DFFF7F6FDEDE730B583B00446134685
:1035C0008162828500250564222280F83E20826B7C
:1035D0002048D063A26B20481064A26B1F48D064BF
:1035E000A26B156520680A46011DA06BFEF7D2FA92
:1035F000019523681A6801925B680193019B84F826
:103600003C5023695BB1226802F10C0353E8003F90
:1036100043F480730C3242E800310029F3D1226870
:1036200002F1140353E8003F43F00103143242E86F
:1036300000310029F3D1226802F1140353E8003F5E
:1036400043F04003143242E800310029F3D1002056
:1036500003B030BD23350008093500083B310008B0
:1036600008B590F83E30DBB2202B0DD171B17AB1A4
:1036700090F83C30012B0DD0012380F83C30002322
:103680000363FFF799FF00E0022008BD0120FCE77B
:103690000120FAE70220F8E7842801D003307047C0
:1036A0000020704708B500F035FD002008BD2DE969
:1036B000F04387B004460F464569BDB18669AEB197
:1036C000D0F80480D0F80090B0F90800FFF7E4FFCC
:1036D0000296019500903B4622694946404600F01B
:1036E000A9FC0590059807B0BDE8F08365682668D9
:1036F000D4F81080B4F90800FFF7CEFF05AB0193B2
:1037000000903B461FFA88F23146284600F0CDFC77
:103710000128E7D00020E6E708B500B9012000F055
:1037200043FE002008BD00F1080343604FF0FF3264
:103730008260C3600361002303607047002303615C
:10374000704743684B609A688A605160996008616D
:10375000036801330360704730B40D68B5F1FF3F73
:1037600011D000F108031C465B681A68AA42FAD916
:1037700063684B6099608C60616008610368013325
:10378000036030BC70470469F2E7036941688268EE
:103790008A60416851605A68824206D00022026104
:1037A0001A68013A1A601868704782685A60F5E72B
:1037B00082B0002301930D4B1B68B3F1FF3F08D08B
:1037C0004FF0500383F31188BFF36F8FBFF34F8F18
:1037D000FEE74FF0500383F31188BFF36F8FBFF301
:1037E0004F8F019B002BFCD002B070477C00002063
:1037F00008480068006880F308884FF0000080F3F4
:10380000148862B661B6BFF34F8FBFF36F8F00DFCE
:1038100000BF000008ED00E0DFF80C00016841F493
:10382000700101607047000088ED00E04FF0807388
:1038300040F8043C21F0010140F8081C054B40F819
:103840000C3C40F8202C6FF0020340F8243C443834
:10385000704700BFB1370008000000000000000002
:10386000074B19680868B0E8F04F80F30988BFF388
:103870006F8F4FF0000080F311887047AFF3008026
:103880006C4900204FF0500383F31188BFF36F8F12
:10389000BFF34F8F0B4A136801331360012B00D025
:1038A00070474FF0E023D3F8043D13F0FF0FF7D03B
:1038B0004FF0500383F31188BFF36F8FBFF34F8F27
:1038C000FEE700BF7C000020094B1B6843B94FF0A6
:1038D000500383F31188BFF36F8FBFF34F8FFEE761
:1038E000013B034A13600BB983F31188704700BF93
:1038F0007C0000200000000000000000000000002C
:10390000EFF30980BFF36F8F154B1A681EF0100F8D
:1039100008BF20ED108A20E9F04F10602DE9090062
:103920004FF0500080F31188BFF34F8FBFF36F8FBC
:1039300000F060FD4FF0000080F3118809BC1968A9
:103940000868B0E8F04F1EF0100F08BFB0EC108A06
:1039500080F30988BFF36F8F704700BFAFF300801B
:103960006C49002008B54FF0500383F31188BFF372
:103970006F8FBFF34F8F00F00FFC28B14FF0E023A3
:103980004FF08052C3F8042D002383F3118808BD43
:103990004FF0E022002313619361054B1B6805493A
:1039A000A1FB03139B09013B53610723136170477C
:1039B00070000020D34D62104FF0E023D3F8002DAB
:1039C0003D4B9A421CD04FF0E023D3F8002D3B4BE7
:1039D0009A421ED030B583B0394B1A78D2B20192D8
:1039E000FF221A701B78DBB28DF803309DF803308C
:1039F00003F05003334A1370334B07221A601BE065
:103A00004FF0500383F31188BFF36F8FBFF34F8FD5
:103A1000FEE74FF0500383F31188BFF36F8FBFF3BE
:103A20004F8FFEE7284A1368013B13609DF803306F
:103A30005B00DBB28DF803309DF8033013F0800F8C
:103A4000F0D1214B1B68032B08D04FF0500383F3B8
:103A50001188BFF36F8FBFF34F8FFEE71B021A4A27
:103A6000136003F4E0631360019BDBB2144A13702C
:103A70004FF0E024D4F8203D43F47003C4F8203D17
:103A8000D4F8203D43F07043C4F8203DFFF780FF99
:103A900000250E4B1D60FFF7BFFED4F8343F43F006
:103AA0004043C4F8343FFFF7A3FE00F0A3FCFFF748
:103AB0007FFE284603B030BD71C20F4170C20F4176
:103AC00000E400E0440D0020480D00207C000020B0
:103AD000124A12F0070F1ED0D11D21F00701C1F5C7
:103AE000705313440A460E4802600021416013449B
:103AF000083B23F007030B48036059601960991ACB
:103B000051601360084B1960084B1960084B4FF067
:103B100000421A6070474FF47053E4E7500D0020E4
:103B2000644900204C0D00205849002054490020D1
:103B300050490020164B1A461B688342FBD351683C
:103B400002EB010C844509D0416800EB010C634590
:103B500009D00360904219D010607047406801445A
:103B600051601046F0E710B40A4C2468A3420BD011
:103B70005B681944416013681B680360904200D081
:103B800010605DF8044B70470460F7E7704700BFB2
:103B9000644900204C0D002070B5054600F0F4FA91
:103BA000364B1B68A3B1364B1B681D424ED135B155
:103BB000083515F0070F02D025F007050835002D50
:103BC00046D0304B1B68AB4251D32F4A146804E0F7
:103BD000FFF77EFFE7E722461C466368AB4202D24E
:103BE0002368002BF7D1254B1B68A34241D01668F0
:103BF00008362368136063685B1B102B10D96019AB
:103C000010F0070F08D04FF0500383F31188BFF373
:103C10006F8FBFF34F8FFEE743606560FFF78AFF4A
:103C2000626818490B689B1A0B60184909688B4237
:103C300001D216490B60124B1B68134363600023CB
:103C40002360134A13680133136002E0002600E08A
:103C5000002600F02DFB16F0070F0CD04FF050039C
:103C600083F31188BFF36F8FBFF34F8FFEE70026FA
:103C7000EFE70026EDE7304670BD00BF4C0D002099
:103C80005049002054490020644900205849002030
:103C90005C490020002834D038B50446A0F108055E
:103CA00050F8043C174A1268134208D14FF05003F1
:103CB00083F31188BFF36F8FBFF34F8FFEE750F888
:103CC000081C41B14FF0500383F31188BFF36F8F8D
:103CD000BFF34F8FFEE723EA020340F8043C00F0F5
:103CE00053FA54F8041C084A13680B44136028461E
:103CF000FFF720FF054A13680133136000F0D8FA7C
:103D000038BD7047504900205449002060490020C8
:103D1000084B1B681B6823B9074B4FF0FF321A6032
:103D20007047044B1B68DB68DB685A68024B1A60FB
:103D3000704700BF70490020444A00202DE9F04739
:103D400007469846089DDDF824900A9C266B02F1F0
:103D50008042013A06EB820626F0070600293AD097
:103D60008E464FF0000CBCF10F0F0BD81EF80C2044
:103D700004EB0C0383F834201EF80C3013B10CF163
:103D8000010CF0E7002384F84330062D00D9062506
:103D9000E56265644FF0000AC4F848A0201DFFF7F3
:103DA000CDFC04F11800FFF7C9FC2461C5F107053B
:103DB000A5616462C4F84CA084F850A0424639461C
:103DC0003046FFF733FD2060B9F1000F01D0C9F88C
:103DD0000040BDE8F087002384F83430D5E70000C8
:103DE00038B5002407E004EB840293000E48184421
:103DF000FFF799FC0134062CF5D90C4D2846FFF746
:103E000092FC0B4C2046FFF78EFC0A48FFF78BFC18
:103E10000948FFF788FC0948FFF785FC084B1D603F
:103E2000084B1C6038BD00BF78490020184A0020AC
:103E30002C4A0020504A00207C4A0020684A00207A
:103E4000704900207449002010B50446FFF71AFDA0
:103E5000214A136801331360204B1B685BB1204B70
:103E60001B686BB91D4B1B68DA6AE36A9A4207D874
:103E70001A4B1C6004E0194B1C601368012B28D0FE
:103E8000184A136801331360E06A01238340164A1D
:103E900011680B43136000EB8000211D134B03EBF3
:103EA0008000FFF74EFCFFF70FFD0D4B1B687BB149
:103EB0000A4B1B68DA6AE36A9A4209D24FF0E023A0
:103EC0004FF08052C3F8042DBFF34F8FBFF36F8FB5
:103ED00010BDFFF785FFD3E7044A00206C4900209E
:103EE000644A0020104A0020144A0020784900202B
:103EF00010B5044690F8513063B1012B11D0022B5C
:103F00000ED04FF0500383F31188BFF36F8FBFF3D0
:103F10004F8FFEE7006BFFF7BDFE2046FFF7BAFEAE
:103F200010BDFFF7B7FEFBE70F4B1B68D3B110B511
:103F3000FFF7A8FC0D4BDB68DC68201DFFF725FCB4
:103F40000B4A1368013B1360074A1368013B136077
:103F5000FFF7BAFC2046FFF7CBFF034B1B68002B93
:103F6000E6D110BD704700BF084A00207C4A0020FF
:103F7000044A002008B5FFF7D7FF074B1B68012B49
:103F8000F9D94FF0E0234FF08052C3F8042DBFF36E
:103F90004F8FBFF36F8FEEE77849002070B504466E
:103FA0000D461D4B1E681D4B18680430FFF7EDFBD6
:103FB00050B91A4B1B68DA6A012303FA02F2184956
:103FC0000B6823EA02030B60B4F1FF3F0DD03444C9
:103FD000124B1B685C60A64210D9124B18680F4B3D
:103FE00019680431FFF7B8FB70BD002DEFD00B4B03
:103FF000196804310C48FFF7A4FBF5E70B4B186870
:10400000064B19680431FFF7A7FB094B1B68A34255
:10401000EAD9074B1C60E7E7904A00206C49002072
:10402000144A002074490020684A0020704900208A
:10403000444A002030B587B00B9C7CB10C9DB5B1D3
:1040400054250495049D542D1AD04FF0500383F34A
:104050001188BFF36F8FBFF34F8FFEE74FF0500310
:1040600083F31188BFF36F8FBFF34F8FFEE74FF0DD
:10407000500383F31188BFF36F8FBFF34F8FFEE7B9
:10408000049D0C9D2C63022485F851400024039468
:10409000029505AC01940A9C0094FFF74FFE0C9822
:1040A000FFF7D2FE059807B030BD2DE9F04385B08B
:1040B0000746884614461E469000FFF76DFD00B384
:1040C00081465420FFF768FD0546B0B1C0F8309036
:1040D000E5B1002385F85130039302950D9B0193C0
:1040E0000C9B00933346224641463846FFF726FE96
:1040F0002846FFF7A9FE012005E04846FFF7CAFD64
:10410000E6E74FF0FF3005B0BDE8F0834FF0FF3039
:10411000F9E7000010B588B000240594069407AABA
:1041200006A905A8FCF76EFB059B0293069B01936D
:1041300000942346079A0E490E48FFF77BFF0E4B6B
:10414000186090B14FF0500383F31188BFF36F8F65
:10415000BFF34F8F094B4FF0FF321A60084B01221B
:104160001A60084B1C60FFF727FC08B010BD00BFA9
:10417000AC560008753F0008404A0020444A002021
:10418000644A0020904A0020024A136801331360F9
:10419000704700BF0C4A0020F8B53A4B1B68002B53
:1041A00069D1394B1D6801351D60C5B9374B1B6896
:1041B0001B6843B14FF0500383F31188BFF36F8F37
:1041C000BFF34F8FFEE7314A1168314B186810601A
:1041D0001960304A136801331360FFF799FD2E4BC5
:1041E0001B68AB423DD900272C4B1B68DB6A03EBF5
:1041F00083039A002A4B9B58012B00D90127294B96
:104200001B68002B3CD001273AE001271F4B1B689D
:104210001B6843B31D4B1B68DB68DC6863689D4209
:1042200026D3261D3046FFF7B0FAA36A1BB104F16E
:104230001800FFF7AAFAE36A01229A401A490868AF
:1042400002430A6003EB83039A003146144810448A
:10425000FFF777FAE26A114B1B68DB6A9A42D4D205
:10426000D4E70027D2E70C4B4FF0FF321A60BBE7D0
:10427000094A1360B8E70D4A136801331360002739
:104280003846F8BD0C4A0020904A002070490020B2
:1042900074490020484A0020444A00206C4900200C
:1042A00078490020944A0020144A00204C4A0020FB
:1042B00038B5354B1B6843B94FF0500383F3118871
:1042C000BFF36F8FBFF34F8FFEE7FFF7DBFA2E4B85
:1042D0001A68013A1A601B68002B4FD12B4B1B68E0
:1042E0000BB900244BE00024294B1B681BB3284B5F
:1042F000DB68DC6804F11800FFF747FA251D284643
:10430000FFF743FAE06A01238340224A11680B4316
:10431000136000EB800029461F4B03EB8000FFF782
:1043200010FAE26A1D4B1B68DB6A9A42DCD31C4B15
:1043300001221A60D8E70CB1FFF7EAFC194B1C68A0
:1043400084B9174B1C68D4B14FF0E0234FF0805272
:10435000C3F8042DBFF34F8FBFF36F8F01240EE01E
:10436000013C07D0FFF718FF0028F9D00C4B0122C1
:104370001A60F5E70B4B00221A60E2E70024FFF712
:10438000A3FA204638BD00BF0C4A0020044A002092
:10439000504A0020144A0020784900206C4900202F
:1043A000944A00204C4A002010B5A8B10446104B96
:1043B0001B6843B14FF0500383F31188BFF36F8F35
:1043C000BFF34F8FFEE7FFF7DFFE00212046FFF728
:1043D000E5FDFFF76DFF48B94FF0E0234FF0805245
:1043E000C3F8042DBFF34F8FBFF36F8F10BD00BF15
:1043F0000C4A0020204B1B681BB1204B01221A6085
:1044000070471E4B00221A601D4B1B68B3FA83F3E2
:10441000DBB2C3F11F0303EB83018A0019498A58F9
:1044200042B94FF0500383F31188BFF36F8FBFF38E
:104430004F8FFEE7134903EB830082000A44506864
:104440004068506003EB830C4FEA8C020832114441
:10445000884209D003EB83039A000A4B13445B683C
:10446000DA68094B1A607047406862469100054A55
:104470000A445060EEE700BF0C4A0020944A002036
:10448000144A0020784900206C490020054B1B6825
:1044900033B1054B1B680BB10020704702207047F9
:1044A00001207047644A00200C4A0020014B186824
:1044B000704700BF8000002070B50D4E0D4D761B7B
:1044C000B61006D0002455F8043B01349847A642A4
:1044D000F9D1094E094D761B01F0A4F8B61006D0AB
:1044E000002455F8043B01349847A642F9D170BD29
:1044F000C0560008C0560008C8560008C05600083C
:10450000830730B548D0541E002A3FD0CAB20346B4
:1045100001E0013C3AD303F8012B9D07F9D1032CAC
:104520002DD9CDB245EA05250F2C45EA054536D9EA
:10453000A4F1100222F00F0C03F1200EE6444FEA22
:10454000121C03F1100242E9045542E902551032EF
:104550007245F8D10CF1010214F00C0F03EB0212BA
:1045600004F00F0C13D0ACF1040323F00303043365
:10457000134442F8045B9342FBD10CF003042CB1CA
:10458000CAB21C4403F8012B9C42FBD130BD6446E7
:104590001346002CF4D1F9E703461446BFE71A4648
:1045A000A446E0E72DE9F043694CD4F8008083B0DD
:1045B00004460E4617461D46B8F1000F03D0D8F842
:1045C0003830002B77D0022F05D0012F00F2AC80BD
:1045D000002DC0F2A980636EDA0752D5214640460D
:1045E00000F060F9216B41B104F14003994202D01F
:1045F000404600F083FA00232363B4F90CC0002383
:104600001CF0800FA361636064D12CF44A6C2CF021
:10461000030C022FA4F80CC06AD001AB6A462146F5
:10462000404600F09DFBA3891843A081002D2FD0A8
:10463000002E2ED0D8F83830002B38D0009B2660C2
:10464000AB42B4F90C301CBF43F40063A381012FCB
:1046500004BF43F00103A3819AB213F00803C4E935
:1046600004652CD0D1075DD56D42A561656E002330
:1046700015F00105A36027D00025284603B0BDE84A
:10468000F083A3899B05A9D4A06D00F065FBA5E785
:10469000009D284600F094FB0646002847D0A389D9
:1046A00043F08003A381D8F83830002BC6D14046B0
:1046B00000F02CF9C2E7404600F028F983E7A36038
:1046C000656E15F00105D7D1930524D5284603B0B2
:1046D000BDE8F0832169404600F010FAB4F90CC03F
:1046E0002CF44A6C2CF0030C022FA4F80CC094D1CB
:1046F0000025002204F14303A2600122C4E9043230
:104700002360636E4CF0020CD807A4F80CC0DDD413
:104710001CF4007FDAD1A06D00F020FB284603B026
:10472000BDE8F083A560CBE74FF0FF35CEE7DDF8BD
:104730000090A94504D0484600F042FB064620B947
:10474000B4F90CC04FF0FF35D3E74D46A7E700BFE3
:1047500080000020024B13B1024800F005B87047FA
:1047600000000000314A0008002301461A4618469E
:1047700000F058BEB1F90C202DE9F0410C461107AC
:10478000804647D4636842F40062002BA2815EDD5C
:10479000A56A002D58D00023D8F80060C8F8003072
:1047A00093B212F4805256D10123E1694046A847E2
:1047B000431C67D0A389A56A5F0705D56368C01A43
:1047C000236B0BB1E36BC01AE1690246002340463C
:1047D000A847411C41D1D8F80030002B3DD01D2BFB
:1047E00001D0162B56D1A3892269226023F40063DD
:1047F00000216160A381216BC8F8006021B304F13E
:104800004003994202D0404600F078F9002020632E
:10481000BDE8F0812669BEB193B2256826609A078B
:104820000CBF63690023AD1BA3600BE02B4632462F
:10483000E169676A4046B847B0F1000CA5EB0C058A
:10484000664417DD002DF1DC0020BDE8F081E36B4C
:10485000002B9DDCF8E7206DAEE7B4F90C3022693F
:10486000226023F40063A3810022DB046260C2D5CE
:104870002065C0E7A38943F040034FF0FF30A381D8
:10488000BDE8F081D8F80030002B93D01D2B06D066
:10489000162B04D0A38943F04003A381D5E7C8F8C1
:1048A0000060D1E738B50C46054608B1836BA3B16B
:1048B000B4F90C00B8B1636EDB0701D4810515D5DE
:1048C00028462146FFF756FF636EDA07054602D4F5
:1048D000A3899B050ED5284638BD00F017F8B4F91A
:1048E0000C000028E7D10546284638BDA06D00F031
:1048F00033FAE5E7A06D00F031FA284638BD00BF75
:10490000014900F001BA00BFD55400082DE9F04775
:104910008246394800F020FADAF83840002C66D197
:10492000DAF80450354ACAF83C200323CAE9B843F0
:10493000DFF8DC90DFF8DC80314F324E04230AF5DB
:104940003B72CAF8E8222146C5E90243C5E90044A2
:10495000C5E904446C660822AC6105F15C00FFF710
:10496000CFFDC5E90759C5E90987EE6205F1580091
:1049700000F0EEF9DAF80850234BEB602146C5E968
:104980000044C5E904446C66AC60AC61082205F1E2
:104990005C00FFF7B5FDC5E90759C5E90987EE6277
:1049A00005F1580000F0D4F9DAF80C50174BEB6021
:1049B0002146C5E90044C5E904446C66AC60AC61BD
:1049C000082205F15C00FFF79BFD05F15800C5E9E1
:1049D0000759C5E90A76C5F8248000F0B9F9012322
:1049E000CAF838300448BDE8F04700F0B7B9BDE870
:1049F000F047014800F0B2B9A44A0020014900087C
:104A0000D1530008F1530008090001001200020010
:104A10006D53000891530008014800F09DB900BF94
:104A2000A04A0020014800F099B900BFA04A002028
:104A300038B5084B084D5B1B9C1007D0043B1D4448
:104A4000013C55F804399847002CF9D1BDE83840AD
:104A500000F0EEBDCC560008C8560008F8B5244F4B
:104A60000C46064600F064FCBA685568C4F57E63DF
:104A70000F3325F003052B4423F47F6323F00F034A
:104A8000A3F58054B4F5805F07DB0021304600F0C9
:104A90005BFCBB682B44984204D0304600F04EFCCF
:104AA0000020F8BD6142304600F04EFC01300DD0D0
:104AB000104ABB682D1B45F001055D601368304648
:104AC0001B1B136000F03AFC0120F8BD00213046AA
:104AD00000F03AFCBA68831A0F2BDEDD43F00103C5
:104AE0005360054B03491B68C01A0860D5E700BF37
:104AF000B4040020A84A0020BC080020002961D08E
:104B0000F8B50C46064600F013FC54F8042C7B4F15
:104B1000A4F1080522F0010105EB010CB868DCF8EE
:104B20000430604523F0030300F08B80D207CCF8FB
:104B3000043032D454F8082CAD1A1144AA6807F195
:104B4000080082426AD00CEB0304D4F804E0EC685D
:104B5000D4601EF0010FA26000F0978041F00103C5
:104B60006B60CCF80010B1F5007F35D27A68CB08C5
:104B700048090121013381401143796007EBC302E9
:104B800057F83310083AC5E9021247F83350CD60A0
:104B90003046BDE8F84000F0D1BB0CEB0302526890
:104BA000D00710D4194407F10800DCF8083083421C
:104BB00073D0DCF80C20DA60936041F001036B6085
:104BC0006950D0E7704741F00103B1F5007F44F828
:104BD000043CCCF80010C9D3B1F5206F4FEA512343
:104BE00048D28B0903F1390003F13802C300F818E9
:104BF000FB580838984259D05A6822F003028A427A
:104C000002D99B689842F7D1D868C5E9023085601F
:104C1000DD603046BDE8F84000F090BB0CEB0302CD
:104C20005268D20763D40B44DCE90212CA60916077
:104C300043F001026A603046EB50BDE8F84000F0F6
:104C40007DBB0B44D10707D454F8082CAD1A13448C
:104C5000D5E90212CA60916043F001026A60284AF5
:104C6000BD6012689A4293D8264B30461968FFF708
:104C7000F5FE8DE7142B0AD9542B1FD80B0B03F12B
:104C80006F0003F16E02C300B1E719448DE703F131
:104C90005C0003F15B02C300A9E741F00103C7E92F
:104CA0000455C5E902006B60695071E7796892109C
:104CB000012404FA02F20A437A60A6E7B3F5AA7F58
:104CC00006D8CB0B03F1780003F17702C3008EE71F
:104CD00040F25452934206D88B0C03F17D0003F14D
:104CE0007C02C30083E74FF47E737E227FE741F0AE
:104CF00001036B60CCF800104AE700BFB404002049
:104D0000C0080020D84A00202DE9F843074688460D
:104D100000F538764FF00009D6E90154013D11D471
:104D2000A389012B05F1FF3508D9B4F90E30013301
:104D3000214603D03846C04749EA00096B1C04F1FC
:104D40006804EDD13668002EE6D14846BDE8F88308
:104D5000704700BF704700BF704700BF704700BF7B
:104D600070B50C46B1F90E10002996B015461E46D6
:104D700014DB6A4600F014FC00280FDB019A02F4F1
:104D80007042A2F50052B2FA82F24FF480635209E7
:104D90004FF4006032602B6016B070BDB4F90C1097
:104DA000002311F08000336004D0402218462A60AE
:104DB00016B070BD4FF480632B6016B070BD00BF9D
:104DC000024B0146186800F003B800BF80000020C5
:104DD0002DE9F04F01F10B06162E83B0044624D8BE
:104DE000102900F2BA8000F0A3FA1026182202203F
:104DF000B54F3A44A2F1080153688B4200F0BA80E3
:104E00005A68D96822F003021A449D68E9608D60EF
:104E1000516841F001012046516003F1080500F09E
:104E20008DFA284603B0BDE8F08F36F0070600F192
:104E30009480B14200F2918000F07AFAB6F5FC7FDE
:104E4000C0F09A81730A00F08F80042B00F26F810A
:104E5000B30903F1390003F1380CC3009A4F3B4406
:104E6000A3F108055B689D4206D10CE0002980F2A1
:104E70002781DB689D4206D05A6822F00302911B0D
:104E80000F29F3DD60463D69DFF850C265457CD0EF
:104E90006A6822F00302931B0F2B00F37B81002B27
:104EA000C7E904CC80F26C81B2F5007F80F01A81F2
:104EB000D308796801334FEA521E012202FA0EF23A
:104EC0000A4357F833E0C5F808E007EBC301083997
:104ED000E9607A6047F83350CEF80C508310012116
:104EE0009940914257D8114206D120F00300490061
:104EF000114200F10400FAD007EBC0094D46864686
:104F0000D5F80C80454508D11DE1002B80F22481A5
:104F1000D8F80C80454500F01681D8F8042022F01E
:104F20000302931B0F2BF0DD2046D8E9025408EB57
:104F3000060146F00106C8F80460EC60A56043F085
:104F40000104C7E90411C1E902CC4C6048F8023001
:104F500000F0F4F908F1080502E00C2323600025B5
:104F6000284603B0BDE8F08F4FF4007340204FF0A7
:104F70003F0C73E7D3689A4208BF02307FF440AF1A
:104F80003D69DFF858C1654582D17A6883100121F7
:104F900099409142A7D9BD686B6823F003094E453B
:104FA00003D8A9EB06030F2B7ADCDFF834B1474BAB
:104FB000DBF800201B680132334405EB090A00F0DE
:104FC000338103F580530F3323F47F6828F00F08F3
:104FD0004146204600F0B8F9411C024600F0F3803B
:104FE000824500F2EE803A4B196841441960084648
:104FF00000F04E81DBF80010019301311BBFA2EBE2
:105000000A0A5044CBF80020186012F0070B00F099
:105010001781CBF108010A44CBF580519044083147
:10502000A1EB0801C1F30B0A51462046009200F0A3
:105030008BF9421CDDE9002300F04F81801A00EB60
:105040000A081968BA6048F001005144BD42506036
:10505000196000F02981B9F10F0F40F227816868CB
:10506000A9F10C0C2CF0070C00F0010040EA0C0038
:1050700068604FF0050E05EB0C00BCF10F0FC0E9A6
:1050800001EE00F2328150681546124B1A688A42CE
:1050900038BF1960104B1A688A4238BF196094E013
:1050A000AA1943F0010346F001066E602046BA607B
:1050B000536000F043F90835284603B0BDE8F08F8F
:1050C000D9681A44A1E600BFB4040020D84A0020E1
:1050D000A84A0020D04A0020D44A0020BC04002066
:1050E000BC080020B2F5206F4FEA522363D3142B83
:1050F00000F2B78003F15C01C9005B3307EB010EDE
:105100007958AEF1080E8E4500F091804B6823F07F
:105110000303934202D989688E45F7D1D1F80CE098
:105120007A68C5E9021ECEF80850CD60D6E6142B89
:1051300059D9542B00F29D80330B03F16F0003F11A
:105140006E0CC3008AE60EF1010E1EF0030F05F18E
:1051500008057FF4D5AE51E0424445465368D8F87F
:105160000C1043F00103536055F8083F2046D96006
:105170008B6000F0E3F8F3E6F00806F1080237E68A
:105180002A442046536843F001035360083500F079
:10519000D5F8E5E6A919204646F0010643F00104DA
:1051A0006E60C7E90411C1E902CC4C60AB5000F05D
:1051B000C5F80835D4E6930903F13901C90038333D
:1051C0009CE7BD425FD0BD68686820F00308464593
:1051D000A8EB060302D80F2B3FF762AF204600F082
:1051E000ADF80025BCE603F15C0003F15B0CC300E5
:1051F00034E659F808394B4540F0968010F0030F1B
:1052000000F1FF30F5D17B6823EA01037B604900A0
:1052100099423FF6C0AE19B9BDE649000EF1040E41
:105220001942FAD0704667E603F11008D0E69A10EA
:105230004FF001087B6808FA02F21A437A6070E7BF
:1052400002EB08014942C1F30B0A51462046009285
:1052500000F07AF8431CDDE900237FF4EFAEDA4674
:10526000EFE6542B25D8130B03F16F01C9006E3301
:1052700044E7B3F5AA7F25D8F30B03F1780003F1D7
:10528000770CC300EAE5294B186840441860B1E682
:10529000CAF30B0CBCF1000F7FF4ACAEBD68C84480
:1052A00048F001006860F0E61546EEE60123536021
:1052B00094E7B3F5AA7F23D8D30B03F17801C90093
:1052C00077331BE740F25452934223D8B30C03F1D7
:1052D0007D0003F17C0CC300C0E5ABF1080BD844A2
:1052E000A8EB02084FF0000AABE605F108012046E2
:1052F0000093FFF703FCBD68009B68681968C4E66B
:1053000040F254518B420BD8930C03F17D01C9003C
:105310007C33F3E64FF47E737F204FF07E0C9DE5E7
:105320004FF47E717E23E9E67B6870E7A84A00208F
:105330000148FFF711BD00BF9C4A00200148FFF75C
:105340000DBD00BF9C4A002038B5074D0022044621
:1053500008462A60FBF726FD431C00D038BD2B68A9
:10536000002BFBD0236038BDDC4A002010B50C4672
:10537000B1F90E1000F040F9002803DB236D03445F
:10538000236510BDA38923F48053A38110BD00BF02
:105390002DE9F0410C46B1F90C101F46CB0505462E
:1053A00016460BD421F48051A1813B46B4F90E106E
:1053B00032462846BDE8F04100F01EB8B4F90E10A0
:1053C0000223002200F002F9B4F90C10EAE700BF52
:1053D00010B50C46B1F90E1000F0F8F8A389421C84
:1053E0000EBF23F4805343F480532065A38110BD86
:1053F000B1F90E1000F05CB838B50C46084D844683
:10540000114620461A4600232B606446FBF72AFC0F
:10541000431C00D038BD2B68002BFBD0236038BD67
:10542000DC4A00202DE9F047DFF880A00646DAF8D4
:10543000000098460F469146FFF78EFC1A4B1B68FA
:10544000D3F8484124B365681F2D26DC5EB96B1C78
:105450000235DAF80000636044F82570FFF77EFC3F
:105460000020BDE8F08704EB85010123C1F8889096
:10547000D4F88821AB401A43022EC4F88821C1F821
:105480000881E4D1D4F88C211343C4F88C31DEE7D1
:1054900003F5A674C3F84841D5E7DAF80000FFF732
:1054A0005DFC4FF0FF30DCE7B4560008B00400208C
:1054B00038B5074D0022044608462A60FBF768FC11
:1054C000431C00D038BD2B68002BFBD0236038BDB7
:1054D000DC4A002070B500294BD006460C4610B1BE
:1054E000836B002B48D0636ED80734D5B4F90C30E9
:1054F000002B3ED021463046FFF73CF9E36A0546D3
:1055000033B1E169304698470028B8BF4FF0FF3506
:10551000A3891A063BD4216B41B104F1400399429F
:1055200002D03046FFF7EAFA00232363616C21B111
:105530003046FFF7E3FA00236364FFF76DFA636E0A
:105540000022DB07A28127D5A06DFFF703FCFFF740
:1055500069FA284670BDA3899905CBD4A06DFFF7E1
:10556000FBFBB4F90C30002BC4D1656E15F00105BE
:1055700008D00025284670BDFFF7C8F9636ED8072C
:10558000B4D4E8E7A06DFFF7E9FB284670BD2169B8
:105590003046FFF7B3FABEE7A06DFFF7DFFBD3E7B6
:1055A00070B50C46084D03460026204611461C46A1
:1055B0002E60FBF7F0FB431C00D070BD2B68002B66
:1055C000FBD0236070BD00BFDC4A002038B50C461C
:1055D000084D8446114620461A4600232B60644637
:1055E000FBF7DEFB431C00D038BD2B68002BFBD043
:1055F000236038BDDC4A002038B50C46084D84468F
:10560000114620461A4600232B606446FBF742FBF6
:10561000431C00D038BD2B68002BFBD0236038BD65
:10562000DC4A0020F8B500BFF8BC08BC9E467047B5
:0C563000F8B500BFF8BC08BC9E467047EF
:10563C0074560008B10700080000000000000000CC
:10564C0080000000000000000000000080560008F0
:10565C00F9070008FDFF00000000000080000000BA
:10566C00000000000000000064656661756C7454F5
:10567C0061736B0044454255470000000000807F79
:10568C0000000000000000000102030406070809E6
:10569C00000000000102030400061016000610169C
:0C56AC0049444C4500000000880000202C
:0856B80048ABFF7F0100000078
:0856C00055470008B501000880
:0456C8009101000844
:1056CC0000401C460000FA430000FA4300000000B2
:1056DC0000000000000000000000FA450000FAC5C0
:1056EC0000000000804FC3470000000000000000D5
:1056FC0000000000000000000000F0410000A0408D
:10570C000000803F000000000000000000000000CE
:10571C0000504347005043C700000000804FC34770
:10572C00000000000000000000000000000000006D
:10573C000024F4000100000010000000AAAAAAAA8C
:10574C00880000200000000000000000740300200E
:10575C00DC030020440400200000000000000000D6
:10576C00000000000000000000000000000000002D
:10577C00000000000000000000000000000000001D
:10578C00000000000000000000000000000000000D
:10579C0000000000000000000000000000000000FD
:1057AC0000000000000000000000000000000000ED
:1057BC0000000000000000000000000000000000DD
:1057CC0000000000000000000000000000000000CD
:1057DC0000000000000000000000000000000000BD
:1057EC0000000000000000000000000000000000AD
:1057FC0001000000000000000E33CDAB34126DE64A
:10580C00ECDE05000B0000000000000000000000B2
:10581C00000000000000000000000000000000007C
:10582C00000000000000000000000000000000006C
:10583C00000000000000000000000000000000005C
:10584C00000000000000000000000000000000004C
:105B7C00984A00200000000000000000B40400203F
:105B8C00B4040020BC040020BC040020C404002089
:105B9C00C4040020CC040020CC040020D404002039
:105BAC00D4040020DC040020DC040020E4040020E9
:105BBC00E4040020EC040020EC040020F404002099
:105BCC00F4040020FC040020FC0400200405002048
:105BDC00040500200C0500200C05002014050020F5
:105BEC00140500201C0500201C05002024050020A5
:105BFC00240500202C0500202C0500203405002055
:105C0C00340500203C0500203C0500204405002004
:105C1C00440500204C0500204C05002054050020B4
:105C2C00540500205C0500205C0500206405002064
:105C3C00640500206C0500206C0500207405002014
:105C4C00740500207C0500207C05002084050020C4
:105C5C00840500208C0500208C0500209405002074
:105C6C00940500209C0500209C050020A405002024
:105C7C00A4050020AC050020AC050020B4050020D4
:105C8C00B4050020BC050020BC050020C405002084
:105C9C00C4050020CC050020CC050020D405002034
:105CAC00D4050020DC050020DC050020E4050020E4
:105CBC00E4050020EC050020EC050020F405002094
:105CCC00F4050020FC050020FC0500200406002043
:105CDC00040600200C0600200C06002014060020F0
:105CEC00140600201C0600201C06002024060020A0
:105CFC00240600202C0600202C0600203406002050
:105D0C00340600203C0600203C06002044060020FF
:105D1C00440600204C0600204C06002054060020AF
:105D2C00540600205C0600205C060020640600205F
:105D3C00640600206C0600206C060020740600200F
:105D4C00740600207C0600207C06002084060020BF
:105D5C00840600208C0600208C060020940600206F
:105D6C00940600209C0600209C060020A40600201F
:105D7C00A4060020AC060020AC060020B4060020CF
:105D8C00B4060020BC060020BC060020C40600207F
:105D9C00C4060020CC060020CC060020D40600202F
:105DAC00D4060020DC060020DC060020E4060020DF
:105DBC00E4060020EC060020EC060020F40600208F
:105DCC00F4060020FC060020FC060020040700203E
:105DDC00040700200C0700200C07002014070020EB
:105DEC00140700201C0700201C070020240700209B
